{
  "contractName": "BankLedger",
  "abi": [
    {
      "inputs": [
        {
          "internalType": "uint256",
          "name": "",
          "type": "uint256"
        }
      ],
      "name": "transactions",
      "outputs": [
        {
          "internalType": "string",
          "name": "id",
          "type": "string"
        },
        {
          "internalType": "string",
          "name": "from_acc",
          "type": "string"
        },
        {
          "internalType": "string",
          "name": "to_acc",
          "type": "string"
        },
        {
          "internalType": "string",
          "name": "transaction_type",
          "type": "string"
        },
        {
          "internalType": "int256",
          "name": "amount",
          "type": "int256"
        },
        {
          "internalType": "string",
          "name": "message",
          "type": "string"
        }
      ],
      "stateMutability": "view",
      "type": "function",
      "constant": true
    },
    {
      "inputs": [
        {
          "internalType": "string",
          "name": "id",
          "type": "string"
        },
        {
          "internalType": "string",
          "name": "from_acc",
          "type": "string"
        },
        {
          "internalType": "string",
          "name": "to_acc",
          "type": "string"
        },
        {
          "internalType": "string",
          "name": "transaction_type",
          "type": "string"
        },
        {
          "internalType": "int256",
          "name": "amount",
          "type": "int256"
        },
        {
          "internalType": "string",
          "name": "message",
          "type": "string"
        }
      ],
      "name": "createTransaction",
      "outputs": [],
      "stateMutability": "nonpayable",
      "type": "function"
    },
    {
      "inputs": [],
      "name": "getTransactions",
      "outputs": [
        {
          "components": [
            {
              "internalType": "string",
              "name": "id",
              "type": "string"
            },
            {
              "internalType": "string",
              "name": "from_acc",
              "type": "string"
            },
            {
              "internalType": "string",
              "name": "to_acc",
              "type": "string"
            },
            {
              "internalType": "string",
              "name": "transaction_type",
              "type": "string"
            },
            {
              "internalType": "int256",
              "name": "amount",
              "type": "int256"
            },
            {
              "internalType": "string",
              "name": "message",
              "type": "string"
            }
          ],
          "internalType": "struct BankLedger.Transaction[]",
          "name": "",
          "type": "tuple[]"
        }
      ],
      "stateMutability": "view",
      "type": "function",
      "constant": true
    }
  ],
  "bytecode": "0x608060405234801561001057600080fd5b506110e0806100206000396000f3fe608060405234801561001057600080fd5b50600436106100415760003560e01c806383920e90146100465780639ace38c214610064578063d1fd852d14610099575b600080fd5b61004e6100b5565b60405161005b91906109dc565b60405180910390f35b61007e60048036038101906100799190610a48565b6103f8565b60405161009096959493929190610ace565b60405180910390f35b6100b360048036038101906100ae9190610cb3565b6106ec565b005b60606000805480602002602001604051908101604052809291908181526020016000905b828210156103ef57838290600052602060002090600602016040518060c001604052908160008201805461010c90610dfb565b80601f016020809104026020016040519081016040528092919081815260200182805461013890610dfb565b80156101855780601f1061015a57610100808354040283529160200191610185565b820191906000526020600020905b81548152906001019060200180831161016857829003601f168201915b5050505050815260200160018201805461019e90610dfb565b80601f01602080910402602001604051908101604052809291908181526020018280546101ca90610dfb565b80156102175780601f106101ec57610100808354040283529160200191610217565b820191906000526020600020905b8154815290600101906020018083116101fa57829003601f168201915b5050505050815260200160028201805461023090610dfb565b80601f016020809104026020016040519081016040528092919081815260200182805461025c90610dfb565b80156102a95780601f1061027e576101008083540402835291602001916102a9565b820191906000526020600020905b81548152906001019060200180831161028c57829003601f168201915b505050505081526020016003820180546102c290610dfb565b80601f01602080910402602001604051908101604052809291908181526020018280546102ee90610dfb565b801561033b5780601f106103105761010080835404028352916020019161033b565b820191906000526020600020905b81548152906001019060200180831161031e57829003601f168201915b505050505081526020016004820154815260200160058201805461035e90610dfb565b80601f016020809104026020016040519081016040528092919081815260200182805461038a90610dfb565b80156103d75780601f106103ac576101008083540402835291602001916103d7565b820191906000526020600020905b8154815290600101906020018083116103ba57829003601f168201915b505050505081525050815260200190600101906100d9565b50505050905090565b6000818154811061040857600080fd5b906000526020600020906006020160009150905080600001805461042b90610dfb565b80601f016020809104026020016040519081016040528092919081815260200182805461045790610dfb565b80156104a45780601f10610479576101008083540402835291602001916104a4565b820191906000526020600020905b81548152906001019060200180831161048757829003601f168201915b5050505050908060010180546104b990610dfb565b80601f01602080910402602001604051908101604052809291908181526020018280546104e590610dfb565b80156105325780601f1061050757610100808354040283529160200191610532565b820191906000526020600020905b81548152906001019060200180831161051557829003601f168201915b50505050509080600201805461054790610dfb565b80601f016020809104026020016040519081016040528092919081815260200182805461057390610dfb565b80156105c05780601f10610595576101008083540402835291602001916105c0565b820191906000526020600020905b8154815290600101906020018083116105a357829003601f168201915b5050505050908060030180546105d590610dfb565b80601f016020809104026020016040519081016040528092919081815260200182805461060190610dfb565b801561064e5780601f106106235761010080835404028352916020019161064e565b820191906000526020600020905b81548152906001019060200180831161063157829003601f168201915b50505050509080600401549080600501805461066990610dfb565b80601f016020809104026020016040519081016040528092919081815260200182805461069590610dfb565b80156106e25780601f106106b7576101008083540402835291602001916106e2565b820191906000526020600020905b8154815290600101906020018083116106c557829003601f168201915b5050505050905086565b60006040518060c001604052808881526020018781526020018681526020018581526020018481526020018381525090506000819080600181540180825580915050600190039060005260206000209060060201600090919091909150600082015181600001908161075e9190610fd8565b5060208201518160010190816107749190610fd8565b50604082015181600201908161078a9190610fd8565b5060608201518160030190816107a09190610fd8565b506080820151816004015560a08201518160050190816107c09190610fd8565b50505050505050505050565b600081519050919050565b600082825260208201905092915050565b6000819050602082019050919050565b600081519050919050565b600082825260208201905092915050565b60005b83811015610832578082015181840152602081019050610817565b60008484015250505050565b6000601f19601f8301169050919050565b600061085a826107f8565b6108648185610803565b9350610874818560208601610814565b61087d8161083e565b840191505092915050565b6000819050919050565b61089b81610888565b82525050565b600060c08301600083015184820360008601526108be828261084f565b915050602083015184820360208601526108d8828261084f565b915050604083015184820360408601526108f2828261084f565b9150506060830151848203606086015261090c828261084f565b91505060808301516109216080860182610892565b5060a083015184820360a0860152610939828261084f565b9150508091505092915050565b600061095283836108a1565b905092915050565b6000602082019050919050565b6000610972826107cc565b61097c81856107d7565b93508360208202850161098e856107e8565b8060005b858110156109ca57848403895281516109ab8582610946565b94506109b68361095a565b925060208a01995050600181019050610992565b50829750879550505050505092915050565b600060208201905081810360008301526109f68184610967565b905092915050565b6000604051905090565b600080fd5b600080fd5b6000819050919050565b610a2581610a12565b8114610a3057600080fd5b50565b600081359050610a4281610a1c565b92915050565b600060208284031215610a5e57610a5d610a08565b5b6000610a6c84828501610a33565b91505092915050565b600082825260208201905092915050565b6000610a91826107f8565b610a9b8185610a75565b9350610aab818560208601610814565b610ab48161083e565b840191505092915050565b610ac881610888565b82525050565b600060c0820190508181036000830152610ae88189610a86565b90508181036020830152610afc8188610a86565b90508181036040830152610b108187610a86565b90508181036060830152610b248186610a86565b9050610b336080830185610abf565b81810360a0830152610b458184610a86565b9050979650505050505050565b600080fd5b600080fd5b7f4e487b7100000000000000000000000000000000000000000000000000000000600052604160045260246000fd5b610b948261083e565b810181811067ffffffffffffffff82111715610bb357610bb2610b5c565b5b80604052505050565b6000610bc66109fe565b9050610bd28282610b8b565b919050565b600067ffffffffffffffff821115610bf257610bf1610b5c565b5b610bfb8261083e565b9050602081019050919050565b82818337600083830152505050565b6000610c2a610c2584610bd7565b610bbc565b905082815260208101848484011115610c4657610c45610b57565b5b610c51848285610c08565b509392505050565b600082601f830112610c6e57610c6d610b52565b5b8135610c7e848260208601610c17565b91505092915050565b610c9081610888565b8114610c9b57600080fd5b50565b600081359050610cad81610c87565b92915050565b60008060008060008060c08789031215610cd057610ccf610a08565b5b600087013567ffffffffffffffff811115610cee57610ced610a0d565b5b610cfa89828a01610c59565b965050602087013567ffffffffffffffff811115610d1b57610d1a610a0d565b5b610d2789828a01610c59565b955050604087013567ffffffffffffffff811115610d4857610d47610a0d565b5b610d5489828a01610c59565b945050606087013567ffffffffffffffff811115610d7557610d74610a0d565b5b610d8189828a01610c59565b9350506080610d9289828a01610c9e565b92505060a087013567ffffffffffffffff811115610db357610db2610a0d565b5b610dbf89828a01610c59565b9150509295509295509295565b7f4e487b7100000000000000000000000000000000000000000000000000000000600052602260045260246000fd5b60006002820490506001821680610e1357607f821691505b602082108103610e2657610e25610dcc565b5b50919050565b60008190508160005260206000209050919050565b60006020601f8301049050919050565b600082821b905092915050565b600060088302610e8e7fffffffffffffffffffffffffffffffffffffffffffffffffffffffffffffffff82610e51565b610e988683610e51565b95508019841693508086168417925050509392505050565b6000819050919050565b6000610ed5610ed0610ecb84610a12565b610eb0565b610a12565b9050919050565b6000819050919050565b610eef83610eba565b610f03610efb82610edc565b848454610e5e565b825550505050565b600090565b610f18610f0b565b610f23818484610ee6565b505050565b5b81811015610f4757610f3c600082610f10565b600181019050610f29565b5050565b601f821115610f8c57610f5d81610e2c565b610f6684610e41565b81016020851015610f75578190505b610f89610f8185610e41565b830182610f28565b50505b505050565b600082821c905092915050565b6000610faf60001984600802610f91565b1980831691505092915050565b6000610fc88383610f9e565b9150826002028217905092915050565b610fe1826107f8565b67ffffffffffffffff811115610ffa57610ff9610b5c565b5b6110048254610dfb565b61100f828285610f4b565b600060209050601f8311600181146110425760008415611030578287015190505b61103a8582610fbc565b8655506110a2565b601f19841661105086610e2c565b60005b8281101561107857848901518255600182019150602085019450602081019050611053565b868310156110955784890151611091601f891682610f9e565b8355505b6001600288020188555050505b50505050505056fea2646970667358221220db6883e1384181fdb0d819109c4cc057033c943dce7825bd9a21036e1eeee74064736f6c63430008110033",
  "immutableReferences": {},
  "source": "// SPDX-License-Identifier: MIT\npragma solidity >=0.4.22 <0.9.0;\n\ncontract BankLedger {\n  \n  struct Transaction{\n    string id;\n    string from_acc;\n    string to_acc;\n    string transaction_type;\n    int amount;\n    string message;\n  }\n\n  Transaction[] public transactions;\n\n  function createTransaction(string memory id,\n  string memory from_acc,\n  string memory to_acc,\n  string memory transaction_type,\n  int amount, \n  string memory message) public {\n    Transaction memory  transaction = Transaction(id,from_acc,to_acc,transaction_type,amount,message);\n    transactions.push(transaction);\n\n  }\n\n  function getTransactions() public view returns(Transaction[] memory){\n    return transactions;\n  } \n\n\n}\n",
  "sourcePath": "C:\\Users\\Akshay Kumar U\\Desktop\\Blockchain Projects\\Bank Ledger\\contracts\\BankLedger.sol",
  "compiler": {
    "name": "solc",
    "version": "0.8.17+commit.8df45f5f.Emscripten.clang"
  },
  "schemaVersion": "3.4.11",
  "updatedAt": "2023-11-08T02:55:53.688Z",
  "networkType": "ethereum",
  "devdoc": {
    "kind": "dev",
    "methods": {},
    "version": 1
  },
  "userdoc": {
    "kind": "user",
    "methods": {},
    "version": 1
  }
}