{
  "contractName": "TransferEther",
  "abi": [
    {
      "inputs": [
        {
          "internalType": "address payable",
          "name": "receipient",
          "type": "address"
        }
      ],
      "name": "transferEther",
      "outputs": [],
      "stateMutability": "payable",
      "type": "function",
      "payable": true
    }
  ],
  "bytecode": "0x608060405234801561001057600080fd5b5061014f806100206000396000f3fe60806040526004361061001e5760003560e01c80636b55e99114610023575b600080fd5b61003d600480360381019061003891906100ec565b61003f565b005b8073ffffffffffffffffffffffffffffffffffffffff166108fc349081150290604051600060405180830381858888f19350505050158015610085573d6000803e3d6000fd5b5050565b600080fd5b600073ffffffffffffffffffffffffffffffffffffffff82169050919050565b60006100b98261008e565b9050919050565b6100c9816100ae565b81146100d457600080fd5b50565b6000813590506100e6816100c0565b92915050565b60006020828403121561010257610101610089565b5b6000610110848285016100d7565b9150509291505056fea26469706673582212209e23ff71d20713dc3eebaf4cc7332a09a757b287945b4f91e7f6fc611ce9b66164736f6c63430008110033",
  "immutableReferences": {},
  "source": "// SPDX-License-Identifier: MIT\npragma solidity >=0.4.22 <0.9.0;\n\ncontract TransferEther {\n \n function transferEther(address payable receipient) public payable{\n   receipient.transfer(msg.value);\n }\n}\n",
  "sourcePath": "C:\\Users\\Akshay Kumar U\\Desktop\\Blockchain Projects\\Bank Ledger\\contracts\\TransferEther.sol",
  "compiler": {
    "name": "solc",
    "version": "0.8.17+commit.8df45f5f.Emscripten.clang"
  },
  "schemaVersion": "3.4.11",
  "updatedAt": "2023-11-08T02:55:54.952Z",
  "networkType": "ethereum",
  "devdoc": {
    "kind": "dev",
    "methods": {},
    "version": 1
  },
  "userdoc": {
    "kind": "user",
    "methods": {},
    "version": 1
  }
}