{
  "contractName": "Counter",
  "abi": [
    {
      "inputs": [],
      "name": "count",
      "outputs": [
        {
          "internalType": "int256",
          "name": "",
          "type": "int256"
        }
      ],
      "stateMutability": "view",
      "type": "function",
      "constant": true
    },
    {
      "inputs": [],
      "name": "increment",
      "outputs": [
        {
          "internalType": "int256",
          "name": "",
          "type": "int256"
        }
      ],
      "stateMutability": "nonpayable",
      "type": "function"
    },
    {
      "inputs": [],
      "name": "decrement",
      "outputs": [
        {
          "internalType": "int256",
          "name": "",
          "type": "int256"
        }
      ],
      "stateMutability": "nonpayable",
      "type": "function"
    },
    {
      "inputs": [],
      "name": "getCount",
      "outputs": [
        {
          "internalType": "int256",
          "name": "",
          "type": "int256"
        }
      ],
      "stateMutability": "view",
      "type": "function",
      "constant": true
    }
  ],
  "bytecode": "0x60806040526000805534801561001457600080fd5b50610236806100246000396000f3fe608060405234801561001057600080fd5b506004361061004c5760003560e01c806306661abd146100515780632baeceb71461006f578063a87d942c1461008d578063d09de08a146100ab575b600080fd5b6100596100c9565b604051610066919061012f565b60405180910390f35b6100776100cf565b604051610084919061012f565b60405180910390f35b6100956100ee565b6040516100a2919061012f565b60405180910390f35b6100b36100f7565b6040516100c0919061012f565b60405180910390f35b60005481565b600060016000546100e09190610179565b600081905550600054905090565b60008054905090565b6000600160005461010891906101bc565b600081905550600054905090565b6000819050919050565b61012981610116565b82525050565b60006020820190506101446000830184610120565b92915050565b7f4e487b7100000000000000000000000000000000000000000000000000000000600052601160045260246000fd5b600061018482610116565b915061018f83610116565b92508282039050818112600084121682821360008512151617156101b6576101b561014a565b5b92915050565b60006101c782610116565b91506101d283610116565b9250828201905082811215600083121683821260008412151617156101fa576101f961014a565b5b9291505056fea26469706673582212200cfb51fdeb20463181b6a93bd3fd89326a1ac7bb729702e4cd0e785228170e8364736f6c63430008130033",
  "immutableReferences": {},
  "source": "pragma solidity 0.8.19;\r\n\r\ncontract Counter{\r\n    int public count = 0;\r\n\r\n    function increment() public  returns (int) {\r\n        count = count + 1;\r\n        return count;\r\n    }\r\n\r\n     function decrement() public  returns (int) {\r\n        count = count - 1;\r\n        return count;\r\n    }\r\n\r\n    function getCount() public view returns (int) {\r\n        return count;\r\n    }\r\n}",
  "sourcePath": "C:\\Users\\Akshay Kumar U\\Desktop\\Blockchain Projects\\SDMCounter\\contracts\\Counter.sol",
  "compiler": {
    "name": "solc",
    "version": "0.8.19+commit.7dd6d404.Emscripten.clang"
  },
  "schemaVersion": "3.4.11",
  "updatedAt": "2023-11-07T04:27:39.124Z",
  "networkType": "ethereum",
  "devdoc": {
    "kind": "dev",
    "methods": {},
    "version": 1
  },
  "userdoc": {
    "kind": "user",
    "methods": {},
    "version": 1
  }
}