{
  "contractName": "StudentRecords",
  "abi": [
    {
      "inputs": [
        {
          "internalType": "uint256",
          "name": "",
          "type": "uint256"
        }
      ],
      "name": "students",
      "outputs": [
        {
          "internalType": "string",
          "name": "",
          "type": "string"
        }
      ],
      "stateMutability": "view",
      "type": "function",
      "constant": true
    },
    {
      "inputs": [
        {
          "internalType": "string",
          "name": "name",
          "type": "string"
        }
      ],
      "name": "createStudent",
      "outputs": [],
      "stateMutability": "nonpayable",
      "type": "function"
    },
    {
      "inputs": [],
      "name": "getStudents",
      "outputs": [
        {
          "internalType": "string[]",
          "name": "",
          "type": "string[]"
        }
      ],
      "stateMutability": "view",
      "type": "function",
      "constant": true
    },
    {
      "inputs": [
        {
          "internalType": "string",
          "name": "name",
          "type": "string"
        }
      ],
      "name": "deleteStudent",
      "outputs": [],
      "stateMutability": "nonpayable",
      "type": "function"
    }
  ],
  "bytecode": "0x608060405234801561001057600080fd5b50610c2f806100206000396000f3fe608060405234801561001057600080fd5b506004361061004c5760003560e01c806306ead22e146100515780638955895f14610081578063f1d064b31461009d578063f80bc664146100bb575b600080fd5b61006b600480360381019061006691906103fd565b6100d7565b60405161007891906104ba565b60405180910390f35b61009b60048036038101906100969190610611565b610183565b005b6100a5610245565b6040516100b29190610766565b60405180910390f35b6100d560048036038101906100d09190610611565b61031e565b005b600081815481106100e757600080fd5b906000526020600020016000915090508054610102906107b7565b80601f016020809104026020016040519081016040528092919081815260200182805461012e906107b7565b801561017b5780601f106101505761010080835404028352916020019161017b565b820191906000526020600020905b81548152906001019060200180831161015e57829003601f168201915b505050505081565b60005b60008054905081101561024157816040516020016101a49190610824565b60405160208183030381529060405280519060200120600082815481106101ce576101cd61083b565b5b906000526020600020016040516020016101e89190610902565b604051602081830303815290604052805190602001200361022e57600081815481106102175761021661083b565b5b90600052602060002001600061022d9190610356565b5b808061023990610948565b915050610186565b5050565b60606000805480602002602001604051908101604052809291908181526020016000905b82821015610315578382906000526020600020018054610288906107b7565b80601f01602080910402602001604051908101604052809291908181526020018280546102b4906107b7565b80156103015780601f106102d657610100808354040283529160200191610301565b820191906000526020600020905b8154815290600101906020018083116102e457829003601f168201915b505050505081526020019060010190610269565b50505050905090565b6000819080600181540180825580915050600190039060005260206000200160009091909190915090816103529190610b27565b5050565b508054610362906107b7565b6000825580601f106103745750610393565b601f0160209004906000526020600020908101906103929190610396565b5b50565b5b808211156103af576000816000905550600101610397565b5090565b6000604051905090565b600080fd5b600080fd5b6000819050919050565b6103da816103c7565b81146103e557600080fd5b50565b6000813590506103f7816103d1565b92915050565b600060208284031215610413576104126103bd565b5b6000610421848285016103e8565b91505092915050565b600081519050919050565b600082825260208201905092915050565b60005b83811015610464578082015181840152602081019050610449565b60008484015250505050565b6000601f19601f8301169050919050565b600061048c8261042a565b6104968185610435565b93506104a6818560208601610446565b6104af81610470565b840191505092915050565b600060208201905081810360008301526104d48184610481565b905092915050565b600080fd5b600080fd5b7f4e487b7100000000000000000000000000000000000000000000000000000000600052604160045260246000fd5b61051e82610470565b810181811067ffffffffffffffff8211171561053d5761053c6104e6565b5b80604052505050565b60006105506103b3565b905061055c8282610515565b919050565b600067ffffffffffffffff82111561057c5761057b6104e6565b5b61058582610470565b9050602081019050919050565b82818337600083830152505050565b60006105b46105af84610561565b610546565b9050828152602081018484840111156105d0576105cf6104e1565b5b6105db848285610592565b509392505050565b600082601f8301126105f8576105f76104dc565b5b81356106088482602086016105a1565b91505092915050565b600060208284031215610627576106266103bd565b5b600082013567ffffffffffffffff811115610645576106446103c2565b5b610651848285016105e3565b91505092915050565b600081519050919050565b600082825260208201905092915050565b6000819050602082019050919050565b600082825260208201905092915050565b60006106a28261042a565b6106ac8185610686565b93506106bc818560208601610446565b6106c581610470565b840191505092915050565b60006106dc8383610697565b905092915050565b6000602082019050919050565b60006106fc8261065a565b6107068185610665565b93508360208202850161071885610676565b8060005b85811015610754578484038952815161073585826106d0565b9450610740836106e4565b925060208a0199505060018101905061071c565b50829750879550505050505092915050565b6000602082019050818103600083015261078081846106f1565b905092915050565b7f4e487b7100000000000000000000000000000000000000000000000000000000600052602260045260246000fd5b600060028204905060018216806107cf57607f821691505b6020821081036107e2576107e1610788565b5b50919050565b600081905092915050565b60006107fe8261042a565b61080881856107e8565b9350610818818560208601610446565b80840191505092915050565b600061083082846107f3565b915081905092915050565b7f4e487b7100000000000000000000000000000000000000000000000000000000600052603260045260246000fd5b60008190508160005260206000209050919050565b6000815461088c816107b7565b61089681866107e8565b945060018216600081146108b157600181146108c6576108f9565b60ff19831686528115158202860193506108f9565b6108cf8561086a565b60005b838110156108f1578154818901526001820191506020810190506108d2565b838801955050505b50505092915050565b600061090e828461087f565b915081905092915050565b7f4e487b7100000000000000000000000000000000000000000000000000000000600052601160045260246000fd5b6000610953826103c7565b91507fffffffffffffffffffffffffffffffffffffffffffffffffffffffffffffffff820361098557610984610919565b5b600182019050919050565b60006020601f8301049050919050565b600082821b905092915050565b6000600883026109dd7fffffffffffffffffffffffffffffffffffffffffffffffffffffffffffffffff826109a0565b6109e786836109a0565b95508019841693508086168417925050509392505050565b6000819050919050565b6000610a24610a1f610a1a846103c7565b6109ff565b6103c7565b9050919050565b6000819050919050565b610a3e83610a09565b610a52610a4a82610a2b565b8484546109ad565b825550505050565b600090565b610a67610a5a565b610a72818484610a35565b505050565b5b81811015610a9657610a8b600082610a5f565b600181019050610a78565b5050565b601f821115610adb57610aac8161086a565b610ab584610990565b81016020851015610ac4578190505b610ad8610ad085610990565b830182610a77565b50505b505050565b600082821c905092915050565b6000610afe60001984600802610ae0565b1980831691505092915050565b6000610b178383610aed565b9150826002028217905092915050565b610b308261042a565b67ffffffffffffffff811115610b4957610b486104e6565b5b610b5382546107b7565b610b5e828285610a9a565b600060209050601f831160018114610b915760008415610b7f578287015190505b610b898582610b0b565b865550610bf1565b601f198416610b9f8661086a565b60005b82811015610bc757848901518255600182019150602085019450602081019050610ba2565b86831015610be45784890151610be0601f891682610aed565b8355505b6001600288020188555050505b50505050505056fea264697066735822122094d2964871f8aba15b3191f618c7ebe061ef67ff3de0a52a962a63ceada1441b64736f6c63430008110033",
  "immutableReferences": {},
  "source": "// SPDX-License-Identifier: MIT\npragma solidity >=0.4.22 <0.9.0;\n\ncontract StudentRecords {\n  string[]  public students;\n\n  function createStudent(string memory name) public {\n    students.push(name);\n  }\n\n  function getStudents() public view returns (string[] memory){\n    return students;\n  }\n\n  function deleteStudent(string memory name) public {\n\n  \n   \n   for(uint i = 0; i < students.length; i++){\n    \n     if(keccak256(abi.encodePacked((students[i]))) == keccak256(abi.encodePacked((name)))){\n        delete students[i];\n     }\n    \n   }\n\n  }\n\n\n\n}\n",
  "sourcePath": "C:\\Users\\Akshay Kumar U\\Desktop\\Blockchain Projects\\Student Records\\contracts\\StudentRecords.sol",
  "compiler": {
    "name": "solc",
    "version": "0.8.17+commit.8df45f5f.Emscripten.clang"
  },
  "schemaVersion": "3.4.11",
  "updatedAt": "2023-11-07T06:52:46.606Z",
  "networkType": "ethereum",
  "devdoc": {
    "kind": "dev",
    "methods": {},
    "version": 1
  },
  "userdoc": {
    "kind": "user",
    "methods": {},
    "version": 1
  }
}