{
  "contractName": "Counter",
  "abi": [
    {
      "inputs": [],
      "name": "increment",
      "outputs": [],
      "stateMutability": "nonpayable",
      "type": "function"
    },
    {
      "inputs": [],
      "name": "decrement",
      "outputs": [],
      "stateMutability": "nonpayable",
      "type": "function"
    },
    {
      "inputs": [],
      "name": "countState",
      "outputs": [
        {
          "internalType": "int256",
          "name": "",
          "type": "int256"
        }
      ],
      "stateMutability": "view",
      "type": "function"
    }
  ],
  "bytecode": "0x60806040525f8055348015610012575f80fd5b506101cf806100205f395ff3fe608060405234801561000f575f80fd5b506004361061003f575f3560e01c80632baeceb7146100435780636b035f721461004d578063d09de08a1461006b575b5f80fd5b61004b610075565b005b61005561008d565b60405161006291906100c5565b60405180910390f35b610073610095565b005b5f808154809291906100869061010b565b9190505550565b5f8054905090565b5f808154809291906100a690610152565b9190505550565b5f819050919050565b6100bf816100ad565b82525050565b5f6020820190506100d85f8301846100b6565b92915050565b7f4e487b71000000000000000000000000000000000000000000000000000000005f52601160045260245ffd5b5f610115826100ad565b91507f80000000000000000000000000000000000000000000000000000000000000008203610147576101466100de565b5b600182039050919050565b5f61015c826100ad565b91507f7fffffffffffffffffffffffffffffffffffffffffffffffffffffffffffffff820361018e5761018d6100de565b5b60018201905091905056fea26469706673582212201ba39d1cd81540e08fd3d965364cbf75db8d200c483c0bc71e3f951195c9950564736f6c63430008150033",
  "immutableReferences": {},
  "source": "// SPDX-License-Identifier: MIT\npragma solidity >=0.4.22 <0.9.0;\n\ncontract Counter {\n int private count = 0;\n function increment() public{\n   count++;\n }\n\n function decrement() public {\n   count--;\n }\n\n function countState() public view returns (int){\n   return count;\n }\n\n}\n",
  "sourcePath": "C:\\Users\\Akshay Kumar U\\Desktop\\Blockchain Projects\\counter\\contracts\\Counter.sol",
  "compiler": {
    "name": "solc",
    "version": "0.8.21+commit.d9974bed.Emscripten.clang"
  },
  "schemaVersion": "3.4.16",
  "updatedAt": "2023-11-06T02:32:31.423Z",
  "devdoc": {
    "kind": "dev",
    "methods": {},
    "version": 1
  },
  "userdoc": {
    "kind": "user",
    "methods": {},
    "version": 1
  }
}